{
  "contractName": "AdminWindow",
  "abi": [
    {
      "inputs": [],
      "payable": false,
      "stateMutability": "nonpayable",
      "type": "constructor"
    },
    {
      "anonymous": false,
      "inputs": [
        {
          "indexed": false,
          "internalType": "bool",
          "name": "state",
          "type": "bool"
        }
      ],
      "name": "LogContractStateChange",
      "type": "event"
    },
    {
      "anonymous": false,
      "inputs": [
        {
          "indexed": false,
          "internalType": "address",
          "name": "posterAddr",
          "type": "address"
        }
      ],
      "name": "LogPosterAccessReq",
      "type": "event"
    },
    {
      "anonymous": false,
      "inputs": [
        {
          "indexed": false,
          "internalType": "address",
          "name": "posterAddr",
          "type": "address"
        }
      ],
      "name": "LogPosterApproved",
      "type": "event"
    },
    {
      "anonymous": false,
      "inputs": [
        {
          "indexed": false,
          "internalType": "address",
          "name": "posterAddr",
          "type": "address"
        }
      ],
      "name": "LogPosterDelete",
      "type": "event"
    },
    {
      "anonymous": false,
      "inputs": [
        {
          "indexed": false,
          "internalType": "address",
          "name": "posterAddr",
          "type": "address"
        }
      ],
      "name": "LogPosterRejected",
      "type": "event"
    },
    {
      "constant": true,
      "inputs": [
        {
          "internalType": "address",
          "name": "",
          "type": "address"
        }
      ],
      "name": "posterAccess",
      "outputs": [
        {
          "internalType": "uint256",
          "name": "",
          "type": "uint256"
        }
      ],
      "payable": false,
      "stateMutability": "view",
      "type": "function"
    },
    {
      "constant": true,
      "inputs": [
        {
          "internalType": "address",
          "name": "addr",
          "type": "address"
        }
      ],
      "name": "isAdmin",
      "outputs": [
        {
          "internalType": "bool",
          "name": "",
          "type": "bool"
        }
      ],
      "payable": false,
      "stateMutability": "view",
      "type": "function"
    },
    {
      "constant": false,
      "inputs": [],
      "name": "toggleContractState",
      "outputs": [],
      "payable": false,
      "stateMutability": "nonpayable",
      "type": "function"
    },
    {
      "constant": false,
      "inputs": [
        {
          "internalType": "address",
          "name": "posterAddr",
          "type": "address"
        }
      ],
      "name": "deletePoster",
      "outputs": [],
      "payable": false,
      "stateMutability": "nonpayable",
      "type": "function"
    },
    {
      "constant": false,
      "inputs": [
        {
          "internalType": "address",
          "name": "posterAddr",
          "type": "address"
        }
      ],
      "name": "approvePoster",
      "outputs": [],
      "payable": false,
      "stateMutability": "nonpayable",
      "type": "function"
    },
    {
      "constant": false,
      "inputs": [
        {
          "internalType": "address",
          "name": "posterAddr",
          "type": "address"
        }
      ],
      "name": "rejectPoster",
      "outputs": [],
      "payable": false,
      "stateMutability": "nonpayable",
      "type": "function"
    },
    {
      "constant": true,
      "inputs": [
        {
          "internalType": "uint256",
          "name": "idx",
          "type": "uint256"
        }
      ],
      "name": "fetchApprovedPoster",
      "outputs": [
        {
          "internalType": "address",
          "name": "",
          "type": "address"
        }
      ],
      "payable": false,
      "stateMutability": "view",
      "type": "function"
    },
    {
      "constant": true,
      "inputs": [],
      "name": "fetchApprovedPosterNum",
      "outputs": [
        {
          "internalType": "uint256",
          "name": "",
          "type": "uint256"
        }
      ],
      "payable": false,
      "stateMutability": "view",
      "type": "function"
    },
    {
      "constant": true,
      "inputs": [
        {
          "internalType": "uint256",
          "name": "idx",
          "type": "uint256"
        }
      ],
      "name": "fetchPendingPoster",
      "outputs": [
        {
          "internalType": "address",
          "name": "",
          "type": "address"
        }
      ],
      "payable": false,
      "stateMutability": "view",
      "type": "function"
    },
    {
      "constant": true,
      "inputs": [],
      "name": "fetchPendingPosterNum",
      "outputs": [
        {
          "internalType": "uint256",
          "name": "",
          "type": "uint256"
        }
      ],
      "payable": false,
      "stateMutability": "view",
      "type": "function"
    },
    {
      "constant": false,
      "inputs": [
        {
          "internalType": "address",
          "name": "posterAddr",
          "type": "address"
        }
      ],
      "name": "reqAccessFromAdmin",
      "outputs": [
        {
          "internalType": "bool",
          "name": "",
          "type": "bool"
        }
      ],
      "payable": false,
      "stateMutability": "nonpayable",
      "type": "function"
    },
    {
      "constant": true,
      "inputs": [
        {
          "internalType": "address",
          "name": "posterAddr",
          "type": "address"
        }
      ],
      "name": "checkPosterAccess",
      "outputs": [
        {
          "internalType": "uint256",
          "name": "",
          "type": "uint256"
        }
      ],
      "payable": false,
      "stateMutability": "view",
      "type": "function"
    }
  ],
  "bytecode": "0x608060405260008060146101000a81548160ff02191690831515021790555034801561002a57600080fd5b50336000806101000a81548173ffffffffffffffffffffffffffffffffffffffff021916908373ffffffffffffffffffffffffffffffffffffffff1602179055506110ed8061007a6000396000f3fe608060405234801561001057600080fd5b50600436106100b45760003560e01c8063a9e611f511610071578063a9e611f51461020d578063bab94e1214610269578063e87b2841146102ad578063ed83c556146102f1578063fc0d588c1461035f578063fed9b110146103b7576100b4565b806324d7806c146100b957806324fde1e21461011557806347c1b4b21461011f5780634fa445491461018d5780637f050cbd146101d157806386753999146101ef575b600080fd5b6100fb600480360360208110156100cf57600080fd5b81019080803573ffffffffffffffffffffffffffffffffffffffff16906020019092919050505061040f565b604051808215151515815260200191505060405180910390f35b61011d610468565b005b61014b6004803603602081101561013557600080fd5b81019080803590602001909291905050506105a0565b604051808273ffffffffffffffffffffffffffffffffffffffff1673ffffffffffffffffffffffffffffffffffffffff16815260200191505060405180910390f35b6101cf600480360360208110156101a357600080fd5b81019080803573ffffffffffffffffffffffffffffffffffffffff1690602001909291905050506106a3565b005b6101d9610810565b6040518082815260200191505060405180910390f35b6101f76108df565b6040518082815260200191505060405180910390f35b61024f6004803603602081101561022357600080fd5b81019080803573ffffffffffffffffffffffffffffffffffffffff1690602001909291905050506109ae565b604051808215151515815260200191505060405180910390f35b6102ab6004803603602081101561027f57600080fd5b81019080803573ffffffffffffffffffffffffffffffffffffffff169060200190929190505050610be6565b005b6102ef600480360360208110156102c357600080fd5b81019080803573ffffffffffffffffffffffffffffffffffffffff169060200190929190505050610db9565b005b61031d6004803603602081101561030757600080fd5b8101908080359060200190929190505050610f26565b604051808273ffffffffffffffffffffffffffffffffffffffff1673ffffffffffffffffffffffffffffffffffffffff16815260200191505060405180910390f35b6103a16004803603602081101561037557600080fd5b81019080803573ffffffffffffffffffffffffffffffffffffffff169060200190929190505050611029565b6040518082815260200191505060405180910390f35b6103f9600480360360208110156103cd57600080fd5b81019080803573ffffffffffffffffffffffffffffffffffffffff169060200190929190505050611072565b6040518082815260200191505060405180910390f35b60008060009054906101000a900473ffffffffffffffffffffffffffffffffffffffff1673ffffffffffffffffffffffffffffffffffffffff168273ffffffffffffffffffffffffffffffffffffffff16149050919050565b6000809054906101000a900473ffffffffffffffffffffffffffffffffffffffff1673ffffffffffffffffffffffffffffffffffffffff163373ffffffffffffffffffffffffffffffffffffffff161461052a576040517f08c379a00000000000000000000000000000000000000000000000000000000081526004018080602001828103825260208152602001807f4f6e6c792061646d696e2063616e20657865637574652074686973207461736b81525060200191505060405180910390fd5b600060149054906101000a900460ff1615600060146101000a81548160ff0219169083151502179055507f05c3cbe299f8b244da310511f75dc27b1adcb6b219fb67da1bcaf13b195d428d600060149054906101000a900460ff16604051808215151515815260200191505060405180910390a1565b60008060009054906101000a900473ffffffffffffffffffffffffffffffffffffffff1673ffffffffffffffffffffffffffffffffffffffff163373ffffffffffffffffffffffffffffffffffffffff1614610664576040517f08c379a00000000000000000000000000000000000000000000000000000000081526004018080602001828103825260208152602001807f4f6e6c792061646d696e2063616e20657865637574652074686973207461736b81525060200191505060405180910390fd5b6003828154811061067157fe5b9060005260206000200160009054906101000a900473ffffffffffffffffffffffffffffffffffffffff169050919050565b6000809054906101000a900473ffffffffffffffffffffffffffffffffffffffff1673ffffffffffffffffffffffffffffffffffffffff163373ffffffffffffffffffffffffffffffffffffffff1614610765576040517f08c379a00000000000000000000000000000000000000000000000000000000081526004018080602001828103825260208152602001807f4f6e6c792061646d696e2063616e20657865637574652074686973207461736b81525060200191505060405180910390fd5b6000600160008373ffffffffffffffffffffffffffffffffffffffff1673ffffffffffffffffffffffffffffffffffffffff168152602001908152602001600020819055507f83a9c36fb4498d01eba6ea1be60829085ccdc21f3f584f30bca7d1e86b648cf581604051808273ffffffffffffffffffffffffffffffffffffffff1673ffffffffffffffffffffffffffffffffffffffff16815260200191505060405180910390a150565b60008060009054906101000a900473ffffffffffffffffffffffffffffffffffffffff1673ffffffffffffffffffffffffffffffffffffffff163373ffffffffffffffffffffffffffffffffffffffff16146108d4576040517f08c379a00000000000000000000000000000000000000000000000000000000081526004018080602001828103825260208152602001807f4f6e6c792061646d696e2063616e20657865637574652074686973207461736b81525060200191505060405180910390fd5b600380549050905090565b60008060009054906101000a900473ffffffffffffffffffffffffffffffffffffffff1673ffffffffffffffffffffffffffffffffffffffff163373ffffffffffffffffffffffffffffffffffffffff16146109a3576040517f08c379a00000000000000000000000000000000000000000000000000000000081526004018080602001828103825260208152602001807f4f6e6c792061646d696e2063616e20657865637574652074686973207461736b81525060200191505060405180910390fd5b600280549050905090565b6000801515600060149054906101000a900460ff16151514610a38576040517f08c379a000000000000000000000000000000000000000000000000000000000815260040180806020018281038252601a8152602001807f52657175657374732064697361626c65642062792061646d696e00000000000081525060200191505060405180910390fd5b6000600160008473ffffffffffffffffffffffffffffffffffffffff1673ffffffffffffffffffffffffffffffffffffffff1681526020019081526020016000205414610ad0576040517f08c379a000000000000000000000000000000000000000000000000000000000815260040180806020018281038252602e81526020018061108b602e913960400191505060405180910390fd5b60018060008473ffffffffffffffffffffffffffffffffffffffff1673ffffffffffffffffffffffffffffffffffffffff1681526020019081526020016000208190555060028290806001815401808255809150509060018203906000526020600020016000909192909190916101000a81548173ffffffffffffffffffffffffffffffffffffffff021916908373ffffffffffffffffffffffffffffffffffffffff160217905550507f10ef3f71c4845846a34c5ab4eaa646c35f8ed3704b5bc06b673ca3ed95ab0f9682604051808273ffffffffffffffffffffffffffffffffffffffff1673ffffffffffffffffffffffffffffffffffffffff16815260200191505060405180910390a160019050919050565b6000809054906101000a900473ffffffffffffffffffffffffffffffffffffffff1673ffffffffffffffffffffffffffffffffffffffff163373ffffffffffffffffffffffffffffffffffffffff1614610ca8576040517f08c379a00000000000000000000000000000000000000000000000000000000081526004018080602001828103825260208152602001807f4f6e6c792061646d696e2063616e20657865637574652074686973207461736b81525060200191505060405180910390fd5b6002600160008373ffffffffffffffffffffffffffffffffffffffff1673ffffffffffffffffffffffffffffffffffffffff1681526020019081526020016000208190555060038190806001815401808255809150509060018203906000526020600020016000909192909190916101000a81548173ffffffffffffffffffffffffffffffffffffffff021916908373ffffffffffffffffffffffffffffffffffffffff160217905550507f7cb8b1f76ada4837b76381ee525f91018cc3bcac50402c2068033738b22f1b5e81604051808273ffffffffffffffffffffffffffffffffffffffff1673ffffffffffffffffffffffffffffffffffffffff16815260200191505060405180910390a150565b6000809054906101000a900473ffffffffffffffffffffffffffffffffffffffff1673ffffffffffffffffffffffffffffffffffffffff163373ffffffffffffffffffffffffffffffffffffffff1614610e7b576040517f08c379a00000000000000000000000000000000000000000000000000000000081526004018080602001828103825260208152602001807f4f6e6c792061646d696e2063616e20657865637574652074686973207461736b81525060200191505060405180910390fd5b6000600160008373ffffffffffffffffffffffffffffffffffffffff1673ffffffffffffffffffffffffffffffffffffffff168152602001908152602001600020819055507f32dba557bceec4cce3f9e209448f29b327219ddef576b43de8d79de374b79bad81604051808273ffffffffffffffffffffffffffffffffffffffff1673ffffffffffffffffffffffffffffffffffffffff16815260200191505060405180910390a150565b60008060009054906101000a900473ffffffffffffffffffffffffffffffffffffffff1673ffffffffffffffffffffffffffffffffffffffff163373ffffffffffffffffffffffffffffffffffffffff1614610fea576040517f08c379a00000000000000000000000000000000000000000000000000000000081526004018080602001828103825260208152602001807f4f6e6c792061646d696e2063616e20657865637574652074686973207461736b81525060200191505060405180910390fd5b60028281548110610ff757fe5b9060005260206000200160009054906101000a900473ffffffffffffffffffffffffffffffffffffffff169050919050565b6000600160008373ffffffffffffffffffffffffffffffffffffffff1673ffffffffffffffffffffffffffffffffffffffff168152602001908152602001600020549050919050565b6001602052806000526040600020600091509050548156fe506f7374657220697320616c726561647920617070726f766564206f722070656e64696e6720617070726f76616ca265627a7a723158205f3255633657c5000e1ee191746a437ed18f1eda4939aa899b026e58ec68c8a464736f6c634300050c0032",
  "source": "pragma solidity ^0.5.0;\n\n// import \"@openzeppelin/contracts/math/SafeMath.sol\";\nimport \"../node_modules/@openzeppelin/contracts/math/SafeMath.sol\";\n\n/**\n* @title AdminWindow\n* @dev Allows Hub-admin to add and remove Job posters and allows Job posters to request access\n*/\ncontract AdminWindow\n{\n\n    using SafeMath for uint;\n\n    // Admin\n    address admin;\n\n    bool private stopped = false;\n\n    // Map of Job posters approved by admin\n    // 0 -> unapproved\n    // 1 -> poster added to req queue\n    // 2 -> poster approved by Admin\n    mapping(address => uint) public posterAccess;\n\n    // An array of posters that are yet to receive approval from admin\n    address[] postersWaitingApproval;\n\n    // An array of job posters approved by the admin\n    address[] approvedPosters;\n\n\n    // Events related to job posters\n    event LogContractStateChange(bool state);\n    event LogPosterDelete(address posterAddr);\n    event LogPosterAccessReq(address posterAddr);\n    event LogPosterApproved(address posterAddr);\n    event LogPosterRejected(address posterAddr);\n\n\n    // Checks if the caller is admin\n    modifier verifyAdmin(){\n        require(msg.sender == admin, 'Only admin can execute this task');\n        _;\n    }\n\n    // Circuit breaker\n    modifier stopInEmergency() {\n        require(stopped == false, \"Requests disabled by admin\");\n        _;\n    }\n\n    constructor()\n        public\n    {\n        admin = msg.sender;\n    }\n\n    /** @dev Verify is an addr is admin\n\t* @param addr - Address to be checked\n    * @return Bool to indicate whether addr is admin\n\t*/\n    function isAdmin(address addr)\n        public\n        view\n        returns (bool)\n    {\n        return(addr == admin);\n    }\n\n\n    /** @dev Toggles contract state in emergency\n\t*/\n\tfunction toggleContractState()\n\t    public\n\t    verifyAdmin()\n\t{\n\t\tstopped = !stopped;\n        emit LogContractStateChange(stopped);\n\t}\n\n    /** @dev Allows admin delete an already approved job poster\n\t* @param posterAddr - Address of the Job poster\n\t*/\n    function deletePoster(address posterAddr)\n        public\n        verifyAdmin()\n    {\n        posterAccess[posterAddr] = 0;\n\n        emit LogPosterDelete(posterAddr);\n    }\n\n    /** @dev Allows admin to approve job posters who request access\n\t* @param posterAddr - Address of the Job poster\n\t*/\n    function approvePoster(address posterAddr)\n        public\n        verifyAdmin()\n    {\n        posterAccess[posterAddr] = 2;\n        approvedPosters.push(posterAddr);\n        emit LogPosterApproved(posterAddr);\n    }\n\n    /** @dev Allows admin to reject job posters who request access\n\t* @param posterAddr - Address of the Job poster\n\t*/\n    function rejectPoster(address posterAddr)\n        public\n        verifyAdmin()\n    {\n        posterAccess[posterAddr] = 0;\n        emit LogPosterRejected(posterAddr);\n    }\n\n    /** @dev Allows admin to fetch an approved posters addr using idx\n\t* @return address of the approved poster at the given idx\n\t*/\n    function fetchApprovedPoster(uint idx)\n        public\n        view\n        verifyAdmin\n        returns (address)\n    {\n        return approvedPosters[idx];\n    }\n\n    /** @dev Allows admin to fetch the number of approved\n\t* @return length of array of approved posters\n\t*/\n    function fetchApprovedPosterNum()\n        public\n        view\n        verifyAdmin\n        returns(uint)\n    {\n        return approvedPosters.length;\n    }\n\n    /** @dev Allows admin to fetch the addr posters pending approval\n\t* @return address of the approved poster at the given idx\n\t*/\n    function fetchPendingPoster(uint idx)\n        public\n        view\n        verifyAdmin\n        returns(address)\n    {\n        return postersWaitingApproval[idx];\n    }\n\n    /** @dev Allows admin to fetch the number of posters pending approval\n\t* @return length of array of pending posters\n\t*/\n    function fetchPendingPosterNum()\n        public\n        view\n        verifyAdmin\n        returns(uint)\n    {\n        return postersWaitingApproval.length;\n    }\n\n    /** @dev Allows job posters to req access from Admin\n\t* @param posterAddr - Address of the Job poster\n    * @return bool to indicate if request was successful\n\t*/\n    function reqAccessFromAdmin(address posterAddr)\n        public\n        stopInEmergency()\n        returns(bool)\n    {\n        require(posterAccess[posterAddr] == 0, 'Poster is already approved or pending approval');\n        posterAccess[posterAddr] = 1;\n        postersWaitingApproval.push(posterAddr);\n        emit LogPosterAccessReq(posterAddr);\n        return true;\n    }\n\n    /** @dev Allows anyone to check a poster's access credentials\n\t* @param posterAddr - Address of the Job poster\n    * @return uint value that indicates poster's access type\n\t*/\n    function checkPosterAccess(address posterAddr)\n        public\n        view\n        returns(uint)\n    {\n        return posterAccess[posterAddr];\n    }\n\n}",
  "sourcePath": "/home/pbattu/truffleprojects/bounty_project_app/contracts/AdminWindow.sol",
  "compiler": {
    "name": "solc",
    "version": "0.5.12+commit.7709ece9.Emscripten.clang"
  },
  "schemaVersion": "3.0.19",
  "updatedAt": "2020-02-02T06:37:33.570Z",
  "networkType": "ethereum",
  "devdoc": {
    "details": "Allows Hub-admin to add and remove Job posters and allows Job posters to request access",
    "methods": {
      "approvePoster(address)": {
        "details": "Allows admin to approve job posters who request access",
        "params": {
          "posterAddr": "- Address of the Job poster"
        }
      },
      "checkPosterAccess(address)": {
        "details": "Allows anyone to check a poster's access credentials",
        "params": {
          "posterAddr": "- Address of the Job poster"
        },
        "return": "uint value that indicates poster's access type"
      },
      "deletePoster(address)": {
        "details": "Allows admin delete an already approved job poster",
        "params": {
          "posterAddr": "- Address of the Job poster"
        }
      },
      "fetchApprovedPoster(uint256)": {
        "details": "Allows admin to fetch an approved posters addr using idx",
        "return": "address of the approved poster at the given idx"
      },
      "fetchApprovedPosterNum()": {
        "details": "Allows admin to fetch the number of approved",
        "return": "length of array of approved posters"
      },
      "fetchPendingPoster(uint256)": {
        "details": "Allows admin to fetch the addr posters pending approval",
        "return": "address of the approved poster at the given idx"
      },
      "fetchPendingPosterNum()": {
        "details": "Allows admin to fetch the number of posters pending approval",
        "return": "length of array of pending posters"
      },
      "isAdmin(address)": {
        "details": "Verify is an addr is admin",
        "params": {
          "addr": "- Address to be checked"
        },
        "return": "Bool to indicate whether addr is admin"
      },
      "rejectPoster(address)": {
        "details": "Allows admin to reject job posters who request access",
        "params": {
          "posterAddr": "- Address of the Job poster"
        }
      },
      "reqAccessFromAdmin(address)": {
        "details": "Allows job posters to req access from Admin",
        "params": {
          "posterAddr": "- Address of the Job poster"
        },
        "return": "bool to indicate if request was successful"
      },
      "toggleContractState()": {
        "details": "Toggles contract state in emergency"
      }
    },
    "title": "AdminWindow"
  },
  "userdoc": {
    "methods": {}
  }
}